:020000009F2936
:1000060083120313FD01F801700803190034740606
:10001600FA00FA1BFD09FB01F41F1328F409F40A80
:10002600F01F1728F009F00A70087404FA00FA1B8A
:100036003B287408F802F00D700DF80D7408F807E7
:10004600F00D0630FC00700DF80D74087018F802FB
:10005600701CF807F00DFC0B2628701CF8077B189F
:100066004928FD1F0034F009F00AF809F80A00349F
:10007600F41F4628F01B43287008F800F0013428C6
:10008600F001F00A0034F009FB0A1C28F80A74088B
:100096007802031D3428F801F00AF01F3428FF34D3
:0200A600080050
:1000A8008312031387010A30F4002408F0000320A8
:1000B8007008A5000A30F4002408F000032078082E
:1000C800F0000430F2007008F1007208031970287B
:1000D800F10D7110FF3E6A28710825078600063069
:1000E800FB001330FC00AD30FD00FD0B7928FC0B44
:0C00F8007928FB0B7928000000000800AC
:100104008312031305199528A1090630FB00133047
:10011400FC00AD30FD00FD0B8D28FC0B8D28FB0B86
:080124008D2800000000080016
:10012C008312031308140F30A00085189E28B928D9
:10013C0080302006F0008030003A70020318A828A6
:10014C000812B9288030033AF00080302006700283
:10015C00031CB32888120816B42888162008A4009B
:0C016C005420A0039B28081088120800F3
:0E0178008312031323088A0022088200080065
:100186008312031388151730A00080302006F00074
:100196008030003A7002031CEE288518D328EE281A
:1001A60080302006F0008030003A70020318DD2807
:1001B6008810EE288030033AF00080302006700266
:1001C600031CE82888140811E92808152008A4004B
:0C01D6005420A003C8280811881108005C
:1001E20083120313851CFA28860188019620C320F6
:0401F200F1280800E8
:1001F6008312031385189229880186010F30870020
:100206002108003A031D4A29081188118816A00101
:1002160080302006F0008030033A700203183C2933
:1002260088140630FB001330FC00AD30FD00FD0BDA
:100236001A29FC0B1A29FB0B1A290000000088104A
:100246000630FB001330FC00AD30FD00FD0B292904
:10025600FC0B2929FB0B292900000000822021081C
:10026600013A031D37293C29851C3A293C29A00A55
:100276000B29081482202108031942294629851CC6
:10028600452946293C29851C49294A29032921084B
:1002960003199129081088120815A001803020063C
:1002A600F0008030033A70020318822908160630DF
:1002B600FB001330FC00AD30FD00FD0B6029FC0B8C
:1002C6006029FB0B60290000000008120630FB00C5
:1002D6001330FC00AD30FD00FD0B6F29FC0B6F29C0
:1002E600FB0B6F290000000082202108003A031D45
:1002F6007D298229851C80298229A00A51298815F1
:1003060082202108003A031D89298D29851C8C2904
:100316008D298229851C902991294A29FB280800C4
:10032600BC208A110A128000840AA20A0319A30AB1
:08033600F003031D93290800E8
:10033E0083120313A001A101073083169F008601CB
:10034E0083128601831687010F308312870083166E
:10035E008801831288010730831685008312051CDD
:0C036E00B929B529F120FB20B929BC29D0
:02400E004A2F37
:00000001FF
